:020000040000FA
:100000000C945D000C9485000C9485000C94850084
:100010000C9485000C9485000C9485000C9485004C
:100020000C9485000C9485000C9485000C9442017E
:100030000C9485000C9485000C9485000C9485002C
:100040000C94F8000C9485000C9485000C948500A9
:100050000C9485000C9485000C9485000C9485000C
:100060000C9485000C94850000000008000201003B
:100070000003040700000000000000000000000072
:10008000250028002B0000000000240027002A0083
:10009000040404040404040402020202020203032E
:1000A0000303030301020408102040800102040836
:1000B0001020010204081020340311241FBECFEFCA
:1000C000D8E0DEBFCDBF11E0A0E0B1E0ECE7F7E0A3
:1000D00002C005900D92A030B107D9F721E0A0E051
:1000E000B1E001C01D92A233B207E1F710E0CDE507
:1000F000D0E004C02197FE010E94B603CC35D107A1
:10010000C9F70E94FE010C94BC030C94000090E01F
:10011000FC01E859FF4F2491FC01EC55FF4F34914D
:10012000FC01E057FF4FE491EE23C9F0222339F0A0
:10013000233001F1A8F4213019F1223029F1F0E047
:10014000EE0FFF1FE458FF4FA591B4918FB7F894BD
:10015000EC91611126C030953E233C938FBF0895EA
:100160002730A9F02830C9F0243049F78091800069
:100170008F7D03C0809180008F7780938000DFCFD8
:1001800084B58F7784BDDBCF84B58F7DFBCF809125
:10019000B0008F778093B000D2CF8091B0008F7D78
:1001A000F9CF3E2BDACF3FB7F894809107019091B9
:1001B0000801A0910901B0910A0126B5A89B05C0CC
:1001C0002F3F19F00196A11DB11D3FBFBA2FA92FD6
:1001D000982F8827BC01CD01620F711D811D911DD3
:1001E00042E0660F771F881F991F4A95D1F708953F
:1001F0001F920F920FB60F9211242F933F938F935C
:100200009F93AF93BF938091030190910401A091BC
:100210000501B09106013091020123E0230F2D3733
:1002200058F50196A11DB11D209302018093030191
:1002300090930401A0930501B093060180910701FA
:1002400090910801A0910901B0910A010196A11DA8
:10025000B11D8093070190930801A0930901B09309
:100260000A01BF91AF919F918F913F912F910F9074
:100270000FBE0F901F90189526E8230F0296A11D20
:10028000B11DD2CF1F920F920FB60F9211242F9350
:100290003F934F935F936F937F938F939F93AF930E
:1002A000BF93CF93DF93EF93FF9380910101C091B0
:1002B0000001D0E087FF24C01092850010928400D6
:1002C000809101018F5F8093010180910101082ECF
:1002D000000C990B8C179D0724F4809101018C3040
:1002E000C4F18091840090918500049680349C49EB
:1002F00008F47AC08091840090918500049676C0BD
:1003000080910101082E000C990B8C179D07C4F6F3
:10031000E09101018E2FEE0F990BFC01EE0FFF1FF4
:10032000E80FF91FE55FFE4F808186FFC9CFE0919E
:1003300001018E2FEE0F990BFC01EE0FFF1FE80F4E
:10034000F91FE55FFE4F808160E08F730E94870098
:10035000B7CF2091840030918500E09101018E2F6C
:10036000EE0F990BFC01EE0FFF1FE80FF91FE55F81
:10037000FE4F81819281820F931F90938900809319
:100380008800E09101018E2FEE0F990BFC01EE0F1A
:10039000FF1FE80FF91FE55FFE4F808186FF11C048
:1003A000E09101018E2FEE0F990BFC01EE0FFF1F64
:1003B000E80FF91FE55FFE4F808161E08F730E94B7
:1003C0008700FF91EF91DF91CF91BF91AF919F9106
:1003D0008F917F916F915F914F913F912F910F90EE
:1003E0000FBE0F901F90189580E49CE990938900B0
:1003F000809388008FEF80930101E3CF789484B5D8
:10040000826084BD84B5816084BD85B5826085BD10
:1004100085B5816085BD80916E00816080936E009E
:100420001092810080918100826080938100809190
:100430008100816080938100809180008160809341
:1004400080008091B10084608093B1008091B00001
:1004500081608093B00080917A00846080937A00FC
:1004600080917A00826080937A0080917A00816026
:1004700080937A0080917A00806880937A0010924D
:10048000C10080912F018C3008F068C0E6EAF0E0EE
:100490002491E2E9F0E08491882399F090E0880FBC
:1004A000991FFC01EA57FF4FA591B491FC01E45854
:1004B000FF4F859194918FB7F894EC91E22BEC93D8
:1004C0008FBF80912F01282F30E0F901EE0FFF1F21
:1004D000E20FF31FE55FFE4F9081907C9260908366
:1004E00010923001109231012CE0622F0E94AA0379
:1004F000829FB001112430E020E0AB01420F531F76
:10050000FA01EE0FFF1FE40FF51FE55FFE4F90812C
:1005100096FD16C02F5F3F4F2C30310571F78111CA
:100520000FC01092800082E08093810010928500BD
:1005300010928400B19A80916F00826080936F0066
:10054000E0912F018E2F90E0FC01EE0FFF1FE80FCE
:10055000F91FE55FFE4F80818064808364EB462E47
:10056000512C612C712C70E0272E70E0372EB0904A
:100570002F012BE02B1508F44BC08091310108E5C9
:1005800012E0081B110987FD1395000F111F000FC2
:10059000111F80913001C8E8D0E0C81BD10987FD48
:1005A000D395CC0FDD1FCC0FDD1F6E010D2E000C7F
:1005B000EE08FF089801012E000C440B550B2C1976
:1005C0003D094E095F09AAE5B0E00E946E03A30150
:1005D00092010E944F03C20ED31EE41EF51ECC16DC
:1005E000DD062CF0E801C016D1060CF4E6012297D6
:1005F000CC0FDD1F2FB7F8948B2D90E0FC01EE0F90
:10060000FF1FE80FF91FE55FFE4FD283C1832FBFA5
:100610000E94D3004B015C0188EEC82E83E0D82EE7
:10062000E12CF12C0E94D300681979098A099B09F1
:10063000683E734081059105A8F381E0C81AD1088E
:10064000E108F10828EE820E23E0921EA11CB11CE5
:10065000C114D104E104F10429F72114310409F48F
:1006600086CF0E94000083CF809100018C3098F4E7
:1006700091E0980F9093000180932F0190E0FC018E
:10068000EE0FFF1FE80FF91FE55FFE4F88EB9BE0C1
:100690009283818308958FEF80932F010895052E13
:1006A00097FB1EF400940E94660357FD07D00E943A
:1006B000790307FC03D04EF40C94660350954095E3
:1006C000309521953F4F4F4F5F4F089590958095FE
:1006D000709561957F4F8F4F9F4F08950E949B03A8
:1006E000A59F900DB49F900DA49F800D911D112486
:1006F0000895A1E21A2EAA1BBB1BFD010DC0AA1F63
:10070000BB1FEE1FFF1FA217B307E407F50720F07A
:10071000A21BB30BE40BF50B661F771F881F991FF5
:100720001A9469F760957095809590959B01AC013E
:10073000BD01CF010895A29FB001B39FC001A39F47
:10074000700D811D1124911DB29F700D811D11240A
:10075000911D0895991B79E004C0991F961708F020
:10076000961B881F7A95C9F780950895EE0FFF1F95
:0C0770000590F491E02D0994F894FFCF5F
:107E0000112484B714BE81FFF0D085E080938100F7
:107E100082E08093C00088E18093C10086E0809377
:107E2000C20080E18093C4008EE0C9D0259A86E02C
:107E300020E33CEF91E0309385002093840096BBD3
:107E4000B09BFECF1D9AA8958150A9F7CC24DD24C4
:107E500088248394B5E0AB2EA1E19A2EF3E0BF2EE7
:107E6000A2D0813461F49FD0082FAFD0023811F036
:107E7000013811F484E001C083E08DD089C08234E0
:107E800011F484E103C0853419F485E0A6D080C0E4
:107E9000853579F488D0E82EFF2485D0082F10E0AE
:107EA000102F00270E291F29000F111F8ED06801E7
:107EB0006FC0863521F484E090D080E0DECF843638
:107EC00009F040C070D06FD0082F6DD080E0C81688
:107ED00080E7D80618F4F601B7BEE895C0E0D1E017
:107EE00062D089930C17E1F7F0E0CF16F0E7DF06D8
:107EF00018F0F601B7BEE89568D007B600FCFDCFD4
:107F0000A601A0E0B1E02C9130E011968C91119780
:107F100090E0982F8827822B932B1296FA010C0160
:107F200087BEE89511244E5F5F4FF1E0A038BF0790
:107F300051F7F601A7BEE89507B600FCFDCF97BE46
:107F4000E89526C08437B1F42ED02DD0F82E2BD052
:107F50003CD0F601EF2C8F010F5F1F4F84911BD097
:107F6000EA94F801C1F70894C11CD11CFA94CF0C13
:107F7000D11C0EC0853739F428D08EE10CD085E9AC
:107F80000AD08FE07ACF813511F488E018D01DD067
:107F900080E101D065CF982F8091C00085FFFCCF94
:107FA0009093C60008958091C00087FFFCCF809118
:107FB000C00084FD01C0A8958091C6000895E0E648
:107FC000F0E098E1908380830895EDDF803219F02E
:107FD00088E0F5DFFFCF84E1DECF1F93182FE3DFCA
:107FE0001150E9F7F2DF1F91089580E0E8DFEE27F6
:047FF000FF270994CA
:027FFE00040479
:00000001FF
